{
	"rng.sol": {
		"random": {
			"abi": [
				{
					"inputs": [],
					"name": "rand",
					"outputs": [
						{
							"internalType": "uint256",
							"name": "rand",
							"type": "uint256"
						}
					],
					"stateMutability": "nonpayable",
					"type": "function"
				}
			],
			"devdoc": {
				"kind": "dev",
				"methods": {},
				"version": 1
			},
			"evm": {
				"assembly": "    /* \"rng.sol\":57:312  contract random {... */\n  mstore(0x40, 0x80)\n  callvalue\n  dup1\n  iszero\n  tag_1\n  jumpi\n  0x00\n  dup1\n  revert\ntag_1:\n  pop\n  dataSize(sub_0)\n  dup1\n  dataOffset(sub_0)\n  0x00\n  codecopy\n  0x00\n  return\nstop\n\nsub_0: assembly {\n        /* \"rng.sol\":57:312  contract random {... */\n      mstore(0x40, 0x80)\n      callvalue\n      dup1\n      iszero\n      tag_1\n      jumpi\n      0x00\n      dup1\n      revert\n    tag_1:\n      pop\n      jumpi(tag_2, lt(calldatasize, 0x04))\n      shr(0xe0, calldataload(0x00))\n      dup1\n      0x3b3dca76\n      eq\n      tag_3\n      jumpi\n    tag_2:\n      0x00\n      dup1\n      revert\n        /* \"rng.sol\":112:309  function rand() public ... */\n    tag_3:\n      tag_4\n      tag_5\n      jump\t// in\n    tag_4:\n      mload(0x40)\n      tag_6\n      swap2\n      swap1\n      tag_7\n      jump\t// in\n    tag_6:\n      mload(0x40)\n      dup1\n      swap2\n      sub\n      swap1\n      return\n    tag_5:\n        /* \"rng.sol\":149:158  uint rand */\n      0x00\n        /* \"rng.sol\":181:196  block.timestamp */\n      timestamp\n        /* \"rng.sol\":174:178  seed */\n      0x00\n        /* \"rng.sol\":174:196  seed = block.timestamp */\n      dup2\n      swap1\n      sstore\n      pop\n        /* \"rng.sol\":206:221  uint randomhash */\n      0x00\n        /* \"rng.sol\":267:271  seed */\n      dup1\n      sload\n        /* \"rng.sol\":250:272  abi.encodePacked(seed) */\n      add(0x20, mload(0x40))\n      tag_9\n      swap2\n      swap1\n      tag_10\n      jump\t// in\n    tag_9:\n      mload(0x40)\n      0x20\n      dup2\n      dup4\n      sub\n      sub\n      dup2\n      mstore\n      swap1\n      0x40\n      mstore\n        /* \"rng.sol\":240:273  keccak256(abi.encodePacked(seed)) */\n      dup1\n      mload\n      swap1\n      0x20\n      add\n      keccak256\n        /* \"rng.sol\":224:275  uint256(bytes32(keccak256(abi.encodePacked(seed)))) */\n      0x00\n      shr\n        /* \"rng.sol\":206:275  uint randomhash = uint256(bytes32(keccak256(abi.encodePacked(seed)))) */\n      swap1\n      pop\n        /* \"rng.sol\":292:302  randomhash */\n      dup1\n        /* \"rng.sol\":285:302  return randomhash */\n      swap2\n      pop\n      pop\n        /* \"rng.sol\":112:309  function rand() public ... */\n      swap1\n      jump\t// out\n        /* \"#utility.yul\":7:84   */\n    tag_11:\n        /* \"#utility.yul\":44:51   */\n      0x00\n        /* \"#utility.yul\":73:78   */\n      dup2\n        /* \"#utility.yul\":62:78   */\n      swap1\n      pop\n        /* \"#utility.yul\":7:84   */\n      swap2\n      swap1\n      pop\n      jump\t// out\n        /* \"#utility.yul\":90:208   */\n    tag_12:\n        /* \"#utility.yul\":177:201   */\n      tag_18\n        /* \"#utility.yul\":195:200   */\n      dup2\n        /* \"#utility.yul\":177:201   */\n      tag_11\n      jump\t// in\n    tag_18:\n        /* \"#utility.yul\":172:175   */\n      dup3\n        /* \"#utility.yul\":165:202   */\n      mstore\n        /* \"#utility.yul\":90:208   */\n      pop\n      pop\n      jump\t// out\n        /* \"#utility.yul\":214:436   */\n    tag_7:\n        /* \"#utility.yul\":307:311   */\n      0x00\n        /* \"#utility.yul\":345:347   */\n      0x20\n        /* \"#utility.yul\":334:343   */\n      dup3\n        /* \"#utility.yul\":330:348   */\n      add\n        /* \"#utility.yul\":322:348   */\n      swap1\n      pop\n        /* \"#utility.yul\":358:429   */\n      tag_20\n        /* \"#utility.yul\":426:427   */\n      0x00\n        /* \"#utility.yul\":415:424   */\n      dup4\n        /* \"#utility.yul\":411:428   */\n      add\n        /* \"#utility.yul\":402:408   */\n      dup5\n        /* \"#utility.yul\":358:429   */\n      tag_12\n      jump\t// in\n    tag_20:\n        /* \"#utility.yul\":214:436   */\n      swap3\n      swap2\n      pop\n      pop\n      jump\t// out\n        /* \"#utility.yul\":442:521   */\n    tag_13:\n        /* \"#utility.yul\":481:488   */\n      0x00\n        /* \"#utility.yul\":510:515   */\n      dup2\n        /* \"#utility.yul\":499:515   */\n      swap1\n      pop\n        /* \"#utility.yul\":442:521   */\n      swap2\n      swap1\n      pop\n      jump\t// out\n        /* \"#utility.yul\":527:684   */\n    tag_14:\n        /* \"#utility.yul\":632:677   */\n      tag_23\n        /* \"#utility.yul\":652:676   */\n      tag_24\n        /* \"#utility.yul\":670:675   */\n      dup3\n        /* \"#utility.yul\":652:676   */\n      tag_11\n      jump\t// in\n    tag_24:\n        /* \"#utility.yul\":632:677   */\n      tag_13\n      jump\t// in\n    tag_23:\n        /* \"#utility.yul\":627:630   */\n      dup3\n        /* \"#utility.yul\":620:678   */\n      mstore\n        /* \"#utility.yul\":527:684   */\n      pop\n      pop\n      jump\t// out\n        /* \"#utility.yul\":690:946   */\n    tag_10:\n        /* \"#utility.yul\":802:805   */\n      0x00\n        /* \"#utility.yul\":817:892   */\n      tag_26\n        /* \"#utility.yul\":888:891   */\n      dup3\n        /* \"#utility.yul\":879:885   */\n      dup5\n        /* \"#utility.yul\":817:892   */\n      tag_14\n      jump\t// in\n    tag_26:\n        /* \"#utility.yul\":917:919   */\n      0x20\n        /* \"#utility.yul\":912:915   */\n      dup3\n        /* \"#utility.yul\":908:920   */\n      add\n        /* \"#utility.yul\":901:920   */\n      swap2\n      pop\n        /* \"#utility.yul\":937:940   */\n      dup2\n        /* \"#utility.yul\":930:940   */\n      swap1\n      pop\n        /* \"#utility.yul\":690:946   */\n      swap3\n      swap2\n      pop\n      pop\n      jump\t// out\n\n    auxdata: 0xa264697066735822122016f76610ea3cee2e86551a1fc867396ddd98da9e9b352e62b90309c60cc904a264736f6c634300081a0033\n}\n",
				"bytecode": {
					"linkReferences": {},
					"object": "6080604052348015600e575f80fd5b506101148061001c5f395ff3fe6080604052348015600e575f80fd5b50600436106026575f3560e01c80633b3dca7614602a575b5f80fd5b60306044565b604051603b91906093565b60405180910390f35b5f425f819055505f8054604051602001605c919060c6565b604051602081830303815290604052805190602001205f1c90508091505090565b5f819050919050565b608d81607d565b82525050565b5f60208201905060a45f8301846086565b92915050565b5f819050919050565b60c060bc82607d565b60aa565b82525050565b5f60cf828460b3565b6020820191508190509291505056fea264697066735822122016f76610ea3cee2e86551a1fc867396ddd98da9e9b352e62b90309c60cc904a264736f6c634300081a0033",
					"opcodes": "PUSH1 0x80 PUSH1 0x40 MSTORE CALLVALUE DUP1 ISZERO PUSH1 0xE JUMPI PUSH0 DUP1 REVERT JUMPDEST POP PUSH2 0x114 DUP1 PUSH2 0x1C PUSH0 CODECOPY PUSH0 RETURN INVALID PUSH1 0x80 PUSH1 0x40 MSTORE CALLVALUE DUP1 ISZERO PUSH1 0xE JUMPI PUSH0 DUP1 REVERT JUMPDEST POP PUSH1 0x4 CALLDATASIZE LT PUSH1 0x26 JUMPI PUSH0 CALLDATALOAD PUSH1 0xE0 SHR DUP1 PUSH4 0x3B3DCA76 EQ PUSH1 0x2A JUMPI JUMPDEST PUSH0 DUP1 REVERT JUMPDEST PUSH1 0x30 PUSH1 0x44 JUMP JUMPDEST PUSH1 0x40 MLOAD PUSH1 0x3B SWAP2 SWAP1 PUSH1 0x93 JUMP JUMPDEST PUSH1 0x40 MLOAD DUP1 SWAP2 SUB SWAP1 RETURN JUMPDEST PUSH0 TIMESTAMP PUSH0 DUP2 SWAP1 SSTORE POP PUSH0 DUP1 SLOAD PUSH1 0x40 MLOAD PUSH1 0x20 ADD PUSH1 0x5C SWAP2 SWAP1 PUSH1 0xC6 JUMP JUMPDEST PUSH1 0x40 MLOAD PUSH1 0x20 DUP2 DUP4 SUB SUB DUP2 MSTORE SWAP1 PUSH1 0x40 MSTORE DUP1 MLOAD SWAP1 PUSH1 0x20 ADD KECCAK256 PUSH0 SHR SWAP1 POP DUP1 SWAP2 POP POP SWAP1 JUMP JUMPDEST PUSH0 DUP2 SWAP1 POP SWAP2 SWAP1 POP JUMP JUMPDEST PUSH1 0x8D DUP2 PUSH1 0x7D JUMP JUMPDEST DUP3 MSTORE POP POP JUMP JUMPDEST PUSH0 PUSH1 0x20 DUP3 ADD SWAP1 POP PUSH1 0xA4 PUSH0 DUP4 ADD DUP5 PUSH1 0x86 JUMP JUMPDEST SWAP3 SWAP2 POP POP JUMP JUMPDEST PUSH0 DUP2 SWAP1 POP SWAP2 SWAP1 POP JUMP JUMPDEST PUSH1 0xC0 PUSH1 0xBC DUP3 PUSH1 0x7D JUMP JUMPDEST PUSH1 0xAA JUMP JUMPDEST DUP3 MSTORE POP POP JUMP JUMPDEST PUSH0 PUSH1 0xCF DUP3 DUP5 PUSH1 0xB3 JUMP JUMPDEST PUSH1 0x20 DUP3 ADD SWAP2 POP DUP2 SWAP1 POP SWAP3 SWAP2 POP POP JUMP INVALID LOG2 PUSH5 0x6970667358 0x22 SLT KECCAK256 AND 0xF7 PUSH7 0x10EA3CEE2E8655 BYTE 0x1F 0xC8 PUSH8 0x396DDD98DA9E9B35 0x2E PUSH3 0xB90309 0xC6 0xC 0xC9 DIV LOG2 PUSH5 0x736F6C6343 STOP ADDMOD BYTE STOP CALLER "
				},
				"gasEstimates": {
					"creation": {
						"codeDepositCost": "55200",
						"executionCost": "103",
						"totalCost": "55303"
					},
					"external": {
						"rand()": "infinite"
					}
				},
				"methodIdentifiers": {
					"rand()": "3b3dca76"
				}
			},
			"storageLayout": {
				"storage": [
					{
						"astId": 3,
						"contract": "rng.sol:random",
						"label": "seed",
						"offset": 0,
						"slot": "0",
						"type": "t_uint256"
					},
					{
						"astId": 5,
						"contract": "rng.sol:random",
						"label": "random",
						"offset": 0,
						"slot": "1",
						"type": "t_uint256"
					}
				],
				"types": {
					"t_uint256": {
						"encoding": "inplace",
						"label": "uint256",
						"numberOfBytes": "32"
					}
				}
			},
			"userdoc": {
				"kind": "user",
				"methods": {},
				"version": 1
			}
		}
	}
}